{
  "_format": "hh-sol-artifact-1",
  "contractName": "Twitter",
  "sourceName": "contracts/Twitter.sol",
  "abi": [
    {
      "inputs": [],
      "stateMutability": "nonpayable",
      "type": "constructor"
    },
    {
      "anonymous": false,
      "inputs": [
        {
          "indexed": false,
          "internalType": "address",
          "name": "tweeter",
          "type": "address"
        },
        {
          "indexed": false,
          "internalType": "uint256",
          "name": "id",
          "type": "uint256"
        },
        {
          "indexed": false,
          "internalType": "string",
          "name": "tweetText",
          "type": "string"
        },
        {
          "indexed": false,
          "internalType": "string",
          "name": "tweetImg",
          "type": "string"
        },
        {
          "indexed": false,
          "internalType": "bool",
          "name": "isDeleted",
          "type": "bool"
        },
        {
          "indexed": false,
          "internalType": "uint256",
          "name": "timestamp",
          "type": "uint256"
        }
      ],
      "name": "tweetCreated",
      "type": "event"
    },
    {
      "anonymous": false,
      "inputs": [
        {
          "indexed": false,
          "internalType": "uint256",
          "name": "id",
          "type": "uint256"
        },
        {
          "indexed": false,
          "internalType": "bool",
          "name": "isDeleted",
          "type": "bool"
        }
      ],
      "name": "tweetDeleted",
      "type": "event"
    },
    {
      "inputs": [
        {
          "internalType": "string",
          "name": "tweetText",
          "type": "string"
        },
        {
          "internalType": "string",
          "name": "tweetImg",
          "type": "string"
        }
      ],
      "name": "addTweet",
      "outputs": [],
      "stateMutability": "payable",
      "type": "function"
    },
    {
      "inputs": [
        {
          "internalType": "uint256",
          "name": "tweetId",
          "type": "uint256"
        },
        {
          "internalType": "bool",
          "name": "isDeleted",
          "type": "bool"
        }
      ],
      "name": "deleteTweet",
      "outputs": [],
      "stateMutability": "nonpayable",
      "type": "function"
    },
    {
      "inputs": [],
      "name": "getAllTweets",
      "outputs": [
        {
          "components": [
            {
              "internalType": "address",
              "name": "tweeter",
              "type": "address"
            },
            {
              "internalType": "uint256",
              "name": "id",
              "type": "uint256"
            },
            {
              "internalType": "string",
              "name": "tweetText",
              "type": "string"
            },
            {
              "internalType": "string",
              "name": "tweetImg",
              "type": "string"
            },
            {
              "internalType": "bool",
              "name": "isDeleted",
              "type": "bool"
            },
            {
              "internalType": "uint256",
              "name": "timestamp",
              "type": "uint256"
            }
          ],
          "internalType": "struct Twitter.tweet[]",
          "name": "",
          "type": "tuple[]"
        }
      ],
      "stateMutability": "view",
      "type": "function"
    },
    {
      "inputs": [],
      "name": "getMyTweets",
      "outputs": [
        {
          "components": [
            {
              "internalType": "address",
              "name": "tweeter",
              "type": "address"
            },
            {
              "internalType": "uint256",
              "name": "id",
              "type": "uint256"
            },
            {
              "internalType": "string",
              "name": "tweetText",
              "type": "string"
            },
            {
              "internalType": "string",
              "name": "tweetImg",
              "type": "string"
            },
            {
              "internalType": "bool",
              "name": "isDeleted",
              "type": "bool"
            },
            {
              "internalType": "uint256",
              "name": "timestamp",
              "type": "uint256"
            }
          ],
          "internalType": "struct Twitter.tweet[]",
          "name": "",
          "type": "tuple[]"
        }
      ],
      "stateMutability": "view",
      "type": "function"
    },
    {
      "inputs": [
        {
          "internalType": "uint256",
          "name": "id",
          "type": "uint256"
        }
      ],
      "name": "getTweet",
      "outputs": [
        {
          "internalType": "string",
          "name": "",
          "type": "string"
        },
        {
          "internalType": "string",
          "name": "",
          "type": "string"
        },
        {
          "internalType": "address",
          "name": "",
          "type": "address"
        }
      ],
      "stateMutability": "view",
      "type": "function"
    },
    {
      "inputs": [
        {
          "internalType": "address",
          "name": "userAddress",
          "type": "address"
        }
      ],
      "name": "getUser",
      "outputs": [
        {
          "components": [
            {
              "internalType": "string",
              "name": "name",
              "type": "string"
            },
            {
              "internalType": "string",
              "name": "bio",
              "type": "string"
            },
            {
              "internalType": "string",
              "name": "profileImg",
              "type": "string"
            },
            {
              "internalType": "string",
              "name": "profileBanner",
              "type": "string"
            }
          ],
          "internalType": "struct Twitter.user",
          "name": "",
          "type": "tuple"
        }
      ],
      "stateMutability": "view",
      "type": "function"
    },
    {
      "inputs": [],
      "name": "owner",
      "outputs": [
        {
          "internalType": "address",
          "name": "",
          "type": "address"
        }
      ],
      "stateMutability": "view",
      "type": "function"
    },
    {
      "inputs": [
        {
          "internalType": "string",
          "name": "newName",
          "type": "string"
        },
        {
          "internalType": "string",
          "name": "newBio",
          "type": "string"
        },
        {
          "internalType": "string",
          "name": "newProfileImg",
          "type": "string"
        },
        {
          "internalType": "string",
          "name": "newProfileBanner",
          "type": "string"
        }
      ],
      "name": "updateUser",
      "outputs": [],
      "stateMutability": "nonpayable",
      "type": "function"
    }
  ],
  "bytecode": "0x608060405234801561001057600080fd5b50336000806101000a81548173ffffffffffffffffffffffffffffffffffffffff021916908373ffffffffffffffffffffffffffffffffffffffff1602179055506000600181905550611f57806100686000396000f3fe60806040526004361061007b5760003560e01c8063aefedbc21161004e578063aefedbc21461012f578063b5c24a011461015a578063c3ad5ecb14610183578063f0312a37146101c25761007b565b806353256135146100805780636f77926b146100ab5780637e75b408146100e85780638da5cb5b14610104575b600080fd5b34801561008c57600080fd5b506100956101eb565b6040516100a2919061140c565b60405180910390f35b3480156100b757600080fd5b506100d260048036038101906100cd919061146e565b610545565b6040516100df9190611513565b60405180910390f35b61010260048036038101906100fd919061166a565b6107e6565b005b34801561011057600080fd5b506101196109a7565b60405161012691906116f1565b60405180910390f35b34801561013b57600080fd5b506101446109cb565b604051610151919061140c565b60405180910390f35b34801561016657600080fd5b50610181600480360381019061017c919061170c565b610d93565b005b34801561018f57600080fd5b506101aa60048036038101906101a5919061180f565b610e25565b6040516101b993929190611886565b60405180910390f35b3480156101ce57600080fd5b506101e960048036038101906101e491906118f7565b611030565b005b6060600060015467ffffffffffffffff81111561020b5761020a61153f565b5b60405190808252806020026020018201604052801561024457816020015b61023161113f565b8152602001906001900390816102295790505b5090506000805b60015481101561048b57600015156002600083815260200190815260200160002060040160009054906101000a900460ff1615150361047857600260008281526020019081526020016000206040518060c00160405290816000820160009054906101000a900473ffffffffffffffffffffffffffffffffffffffff1673ffffffffffffffffffffffffffffffffffffffff1673ffffffffffffffffffffffffffffffffffffffff1681526020016001820154815260200160028201805461031290611966565b80601f016020809104026020016040519081016040528092919081815260200182805461033e90611966565b801561038b5780601f106103605761010080835404028352916020019161038b565b820191906000526020600020905b81548152906001019060200180831161036e57829003601f168201915b505050505081526020016003820180546103a490611966565b80601f01602080910402602001604051908101604052809291908181526020018280546103d090611966565b801561041d5780601f106103f25761010080835404028352916020019161041d565b820191906000526020600020905b81548152906001019060200180831161040057829003601f168201915b505050505081526020016004820160009054906101000a900460ff1615151515815260200160058201548152505083838151811061045e5761045d611997565b5b60200260200101819052508180610474906119f5565b9250505b8080610483906119f5565b91505061024b565b5060008167ffffffffffffffff8111156104a8576104a761153f565b5b6040519080825280602002602001820160405280156104e157816020015b6104ce61113f565b8152602001906001900390816104c65790505b50905060005b8281101561053b5783818151811061050257610501611997565b5b602002602001015182828151811061051d5761051c611997565b5b60200260200101819052508080610533906119f5565b9150506104e7565b5080935050505090565b61054d61118d565b600360008373ffffffffffffffffffffffffffffffffffffffff1673ffffffffffffffffffffffffffffffffffffffff1681526020019081526020016000206040518060800160405290816000820180546105a790611966565b80601f01602080910402602001604051908101604052809291908181526020018280546105d390611966565b80156106205780601f106105f557610100808354040283529160200191610620565b820191906000526020600020905b81548152906001019060200180831161060357829003601f168201915b5050505050815260200160018201805461063990611966565b80601f016020809104026020016040519081016040528092919081815260200182805461066590611966565b80156106b25780601f10610687576101008083540402835291602001916106b2565b820191906000526020600020905b81548152906001019060200180831161069557829003601f168201915b505050505081526020016002820180546106cb90611966565b80601f01602080910402602001604051908101604052809291908181526020018280546106f790611966565b80156107445780601f1061071957610100808354040283529160200191610744565b820191906000526020600020905b81548152906001019060200180831161072757829003601f168201915b5050505050815260200160038201805461075d90611966565b80601f016020809104026020016040519081016040528092919081815260200182805461078990611966565b80156107d65780601f106107ab576101008083540402835291602001916107d6565b820191906000526020600020905b8154815290600101906020018083116107b957829003601f168201915b5050505050815250509050919050565b6509184e72a000341461082e576040517f08c379a000000000000000000000000000000000000000000000000000000000815260040161082590611a89565b60405180910390fd5b60006002600060015481526020019081526020016000209050828160020190816108589190611c55565b508181600301908161086a9190611c55565b50338160000160006101000a81548173ffffffffffffffffffffffffffffffffffffffff021916908373ffffffffffffffffffffffffffffffffffffffff160217905550600154816001018190555060008160040160006101000a81548160ff0219169083151502179055504281600501819055507f38c5779ac46571418294ee2465c37dedbc6002dc9d04a4033cf23156da62fcd333600154858560004260405161091b96959493929190611d45565b60405180910390a160016000815480929190610936906119f5565b919050555060008054906101000a900473ffffffffffffffffffffffffffffffffffffffff1673ffffffffffffffffffffffffffffffffffffffff166108fc349081150290604051600060405180830381858888f193505050501580156109a1573d6000803e3d6000fd5b50505050565b60008054906101000a900473ffffffffffffffffffffffffffffffffffffffff1681565b6060600060015467ffffffffffffffff8111156109eb576109ea61153f565b5b604051908082528060200260200182016040528015610a2457816020015b610a1161113f565b815260200190600190039081610a095790505b5090506000805b600154811015610cd9573373ffffffffffffffffffffffffffffffffffffffff166002600083815260200190815260200160002060000160009054906101000a900473ffffffffffffffffffffffffffffffffffffffff1673ffffffffffffffffffffffffffffffffffffffff16148015610acd5750600015156002600083815260200190815260200160002060040160009054906101000a900460ff161515145b15610cc657600260008281526020019081526020016000206040518060c00160405290816000820160009054906101000a900473ffffffffffffffffffffffffffffffffffffffff1673ffffffffffffffffffffffffffffffffffffffff1673ffffffffffffffffffffffffffffffffffffffff16815260200160018201548152602001600282018054610b6090611966565b80601f0160208091040260200160405190810160405280929190818152602001828054610b8c90611966565b8015610bd95780601f10610bae57610100808354040283529160200191610bd9565b820191906000526020600020905b815481529060010190602001808311610bbc57829003601f168201915b50505050508152602001600382018054610bf290611966565b80601f0160208091040260200160405190810160405280929190818152602001828054610c1e90611966565b8015610c6b5780601f10610c4057610100808354040283529160200191610c6b565b820191906000526020600020905b815481529060010190602001808311610c4e57829003601f168201915b505050505081526020016004820160009054906101000a900460ff16151515158152602001600582015481525050838381518110610cac57610cab611997565b5b60200260200101819052508180610cc2906119f5565b9250505b8080610cd1906119f5565b915050610a2b565b5060008167ffffffffffffffff811115610cf657610cf561153f565b5b604051908082528060200260200182016040528015610d2f57816020015b610d1c61113f565b815260200190600190039081610d145790505b50905060005b82811015610d8957838181518110610d5057610d4f611997565b5b6020026020010151828281518110610d6b57610d6a611997565b5b60200260200101819052508080610d81906119f5565b915050610d35565b5080935050505090565b6000600360003373ffffffffffffffffffffffffffffffffffffffff1673ffffffffffffffffffffffffffffffffffffffff168152602001908152602001600020905084816000019081610de79190611c55565b5083816001019081610df99190611c55565b5082816002019081610e0b9190611c55565b5081816003019081610e1d9190611c55565b505050505050565b60608060006001548410610e6e576040517f08c379a0000000000000000000000000000000000000000000000000000000008152600401610e6590611e00565b60405180910390fd5b6000600260008681526020019081526020016000209050600015158160040160009054906101000a900460ff16151514610edd576040517f08c379a0000000000000000000000000000000000000000000000000000000008152600401610ed490611e6c565b60405180910390fd5b80600201816003018260000160009054906101000a900473ffffffffffffffffffffffffffffffffffffffff16828054610f1690611966565b80601f0160208091040260200160405190810160405280929190818152602001828054610f4290611966565b8015610f8f5780601f10610f6457610100808354040283529160200191610f8f565b820191906000526020600020905b815481529060010190602001808311610f7257829003601f168201915b50505050509250818054610fa290611966565b80601f0160208091040260200160405190810160405280929190818152602001828054610fce90611966565b801561101b5780601f10610ff05761010080835404028352916020019161101b565b820191906000526020600020905b815481529060010190602001808311610ffe57829003601f168201915b50505050509150935093509350509193909250565b3373ffffffffffffffffffffffffffffffffffffffff166002600084815260200190815260200160002060000160009054906101000a900473ffffffffffffffffffffffffffffffffffffffff1673ffffffffffffffffffffffffffffffffffffffff16146110d4576040517f08c379a00000000000000000000000000000000000000000000000000000000081526004016110cb90611ed8565b60405180910390fd5b806002600084815260200190815260200160002060040160006101000a81548160ff0219169083151502179055507f7d6920872f4fb292f7fc9afd13a3e5e33dcdb18dfaa6c5f1dcd87b2a4d532a188282604051611133929190611ef8565b60405180910390a15050565b6040518060c00160405280600073ffffffffffffffffffffffffffffffffffffffff168152602001600081526020016060815260200160608152602001600015158152602001600081525090565b6040518060800160405280606081526020016060815260200160608152602001606081525090565b600081519050919050565b600082825260208201905092915050565b6000819050602082019050919050565b600073ffffffffffffffffffffffffffffffffffffffff82169050919050565b600061120c826111e1565b9050919050565b61121c81611201565b82525050565b6000819050919050565b61123581611222565b82525050565b600081519050919050565b600082825260208201905092915050565b60005b8381101561127557808201518184015260208101905061125a565b60008484015250505050565b6000601f19601f8301169050919050565b600061129d8261123b565b6112a78185611246565b93506112b7818560208601611257565b6112c081611281565b840191505092915050565b60008115159050919050565b6112e0816112cb565b82525050565b600060c0830160008301516112fe6000860182611213565b506020830151611311602086018261122c565b50604083015184820360408601526113298282611292565b915050606083015184820360608601526113438282611292565b915050608083015161135860808601826112d7565b5060a083015161136b60a086018261122c565b508091505092915050565b600061138283836112e6565b905092915050565b6000602082019050919050565b60006113a2826111b5565b6113ac81856111c0565b9350836020820285016113be856111d1565b8060005b858110156113fa57848403895281516113db8582611376565b94506113e68361138a565b925060208a019950506001810190506113c2565b50829750879550505050505092915050565b600060208201905081810360008301526114268184611397565b905092915050565b6000604051905090565b600080fd5b600080fd5b61144b81611201565b811461145657600080fd5b50565b60008135905061146881611442565b92915050565b60006020828403121561148457611483611438565b5b600061149284828501611459565b91505092915050565b600060808301600083015184820360008601526114b88282611292565b915050602083015184820360208601526114d28282611292565b915050604083015184820360408601526114ec8282611292565b915050606083015184820360608601526115068282611292565b9150508091505092915050565b6000602082019050818103600083015261152d818461149b565b905092915050565b600080fd5b600080fd5b7f4e487b7100000000000000000000000000000000000000000000000000000000600052604160045260246000fd5b61157782611281565b810181811067ffffffffffffffff821117156115965761159561153f565b5b80604052505050565b60006115a961142e565b90506115b5828261156e565b919050565b600067ffffffffffffffff8211156115d5576115d461153f565b5b6115de82611281565b9050602081019050919050565b82818337600083830152505050565b600061160d611608846115ba565b61159f565b9050828152602081018484840111156116295761162861153a565b5b6116348482856115eb565b509392505050565b600082601f83011261165157611650611535565b5b81356116618482602086016115fa565b91505092915050565b6000806040838503121561168157611680611438565b5b600083013567ffffffffffffffff81111561169f5761169e61143d565b5b6116ab8582860161163c565b925050602083013567ffffffffffffffff8111156116cc576116cb61143d565b5b6116d88582860161163c565b9150509250929050565b6116eb81611201565b82525050565b600060208201905061170660008301846116e2565b92915050565b6000806000806080858703121561172657611725611438565b5b600085013567ffffffffffffffff8111156117445761174361143d565b5b6117508782880161163c565b945050602085013567ffffffffffffffff8111156117715761177061143d565b5b61177d8782880161163c565b935050604085013567ffffffffffffffff81111561179e5761179d61143d565b5b6117aa8782880161163c565b925050606085013567ffffffffffffffff8111156117cb576117ca61143d565b5b6117d78782880161163c565b91505092959194509250565b6117ec81611222565b81146117f757600080fd5b50565b600081359050611809816117e3565b92915050565b60006020828403121561182557611824611438565b5b6000611833848285016117fa565b91505092915050565b600082825260208201905092915050565b60006118588261123b565b611862818561183c565b9350611872818560208601611257565b61187b81611281565b840191505092915050565b600060608201905081810360008301526118a0818661184d565b905081810360208301526118b4818561184d565b90506118c360408301846116e2565b949350505050565b6118d4816112cb565b81146118df57600080fd5b50565b6000813590506118f1816118cb565b92915050565b6000806040838503121561190e5761190d611438565b5b600061191c858286016117fa565b925050602061192d858286016118e2565b9150509250929050565b7f4e487b7100000000000000000000000000000000000000000000000000000000600052602260045260246000fd5b6000600282049050600182168061197e57607f821691505b60208210810361199157611990611937565b5b50919050565b7f4e487b7100000000000000000000000000000000000000000000000000000000600052603260045260246000fd5b7f4e487b7100000000000000000000000000000000000000000000000000000000600052601160045260246000fd5b6000611a0082611222565b91507fffffffffffffffffffffffffffffffffffffffffffffffffffffffffffffffff8203611a3257611a316119c6565b5b600182019050919050565b7f506c65617365207375626d697420302e3030303031204d617469630000000000600082015250565b6000611a73601b8361183c565b9150611a7e82611a3d565b602082019050919050565b60006020820190508181036000830152611aa281611a66565b9050919050565b60008190508160005260206000209050919050565b60006020601f8301049050919050565b600082821b905092915050565b600060088302611b0b7fffffffffffffffffffffffffffffffffffffffffffffffffffffffffffffffff82611ace565b611b158683611ace565b95508019841693508086168417925050509392505050565b6000819050919050565b6000611b52611b4d611b4884611222565b611b2d565b611222565b9050919050565b6000819050919050565b611b6c83611b37565b611b80611b7882611b59565b848454611adb565b825550505050565b600090565b611b95611b88565b611ba0818484611b63565b505050565b5b81811015611bc457611bb9600082611b8d565b600181019050611ba6565b5050565b601f821115611c0957611bda81611aa9565b611be384611abe565b81016020851015611bf2578190505b611c06611bfe85611abe565b830182611ba5565b50505b505050565b600082821c905092915050565b6000611c2c60001984600802611c0e565b1980831691505092915050565b6000611c458383611c1b565b9150826002028217905092915050565b611c5e8261123b565b67ffffffffffffffff811115611c7757611c7661153f565b5b611c818254611966565b611c8c828285611bc8565b600060209050601f831160018114611cbf5760008415611cad578287015190505b611cb78582611c39565b865550611d1f565b601f198416611ccd86611aa9565b60005b82811015611cf557848901518255600182019150602085019450602081019050611cd0565b86831015611d125784890151611d0e601f891682611c1b565b8355505b6001600288020188555050505b505050505050565b611d3081611222565b82525050565b611d3f816112cb565b82525050565b600060c082019050611d5a60008301896116e2565b611d676020830188611d27565b8181036040830152611d79818761184d565b90508181036060830152611d8d818661184d565b9050611d9c6080830185611d36565b611da960a0830184611d27565b979650505050505050565b7f4e4f207375636820747765657420657869737473000000000000000000000000600082015250565b6000611dea60148361183c565b9150611df582611db4565b602082019050919050565b60006020820190508181036000830152611e1981611ddd565b9050919050565b7f74776565742069732064656c6574656400000000000000000000000000000000600082015250565b6000611e5660108361183c565b9150611e6182611e20565b602082019050919050565b60006020820190508181036000830152611e8581611e49565b9050919050565b7f596f752063616e206f6e6c792064656c65746520796f75722074776565747300600082015250565b6000611ec2601f8361183c565b9150611ecd82611e8c565b602082019050919050565b60006020820190508181036000830152611ef181611eb5565b9050919050565b6000604082019050611f0d6000830185611d27565b611f1a6020830184611d36565b939250505056fea2646970667358221220b44e6c46d992e4d8f1d69b4fffd9836da0b93fcbe2a76c6298d844c5935d17cb64736f6c63430008130033",
  "linkReferences": {},
  "deployedLinkReferences": {}
}